:100000000C9435000C945D000C945D000C945D0024
:100010000C945D000C945D000C945D000C945D00EC
:100020000C945D000C945D000C945D000C945D00DC
:100030000C945D000C945D000C945D000C945D00CC
:100040000C94BF010C945D000C9485010C944A0142
:100050000C945D000C945D000C945D000C945D00AC
:100060000C945D000C945D00090211241FBECFEFBB
:10007000D8E0DEBFCDBF11E0A0E0B1E0ECEAF7E0F0
:1000800002C005900D92AA32B107D9F721E0AAE289
:10009000B1E001C01D92AD3DB207E1F710E0C5E34C
:1000A000D0E004C02197FE010E94CE03C433D107E3
:1000B000C9F70E9444020C943D030C9400000F9376
:1000C0001F93CF93DF93FC01A685B7858D01005C5C
:1000D0001F4FE8018881998101968F739927AD019F
:1000E0004E5B5F4FEA012881398182179307D1F374
:1000F000E80128813981A20FB31F6C93A685B785CB
:10010000A05CBF4F11969C938E93A689B7892C91C2
:1001100081E090E0078C02C0880F991F0A94E2F7F3
:10012000822B8C9381E081A30488F589E02D808166
:100130008064808381E090E0DF91CF911F910F91E7
:100140000895FC0181A1882329F0A489B5898C91A7
:1001500086FFFBCF11A20895FC01A485B585FD01A2
:10016000E05CFF4F20813181329680819181281798
:10017000390779F080819181A80FB91F8C91208176
:1001800031812F5F3F4F2F7333273183208390E0DE
:1001900008958FEF9FEF0895DC011C96ED91FC917F
:1001A0001D97DF01A05CBF4F2D913C9111971296D6
:1001B0008D919C9111972817390739F08D919C9159
:1001C000E80FF91F808190E008958FEF9FEF089569
:1001D000FC0124853585F901E05CFF4F8081918128
:1001E000329620813181821B930B8F73992708955A
:1001F0008BEB91E00C94E8000895CF92DF92EF92A0
:10020000FF920F931F93CF93DF936C01EB017B0160
:10021000E40EF51E00E010E0CE15DF0561F06991F7
:10022000D601ED91FC910190F081E02DC601099578
:10023000080F191FF1CFC801DF91CF911F910F91C6
:10024000FF90EF90DF90CF9008953FB7F8948091A2
:100250002F0190913001A0913101B091320126B56A
:10026000A89B05C02F3F19F00196A11DB11D3FBFEE
:10027000BA2FA92F982F8827820F911DA11DB11D7C
:10028000BC01CD0142E0660F771F881F991F4A9578
:10029000D1F708951F920F920FB60F9211242F934A
:1002A0003F938F939F93EF93FF932091730130912E
:1002B000740180917501909176012817390731F406
:1002C0008091C1008F7D8093C10014C0E0917501C1
:1002D000F0917601ED5CFE4F208180917501909147
:1002E000760101968F73992790937601809375011B
:1002F0002093C600FF91EF919F918F913F912F9195
:100300000F900FBE0F901F9018951F920F920FB66F
:100310000F9211242F934F935F938F939F93EF939B
:10032000FF938091C00082FD1CC02091C600809187
:10033000B7019091B80101968F7399274091B90147
:100340005091BA018417950771F0E091B701F091CF
:10035000B801E958FE4F20839093B8018093B7010C
:1003600002C08091C600FF91EF919F918F915F91A4
:100370004F912F910F900FBE0F901F9018951F92C5
:100380000F920FB60F9211242F933F938F939F9349
:10039000AF93BF9380912B0190912C01A0912D01DF
:1003A000B0912E0130912A0123E0230F2D3720F444
:1003B0000196A11DB11D05C026E8230F0296A11DBF
:1003C000B11D20932A0180932B0190932C01A093BF
:1003D0002D01B0932E0180912F0190913001A091B9
:1003E0003101B09132010196A11DB11D80932F0101
:1003F00090933001A0933101B0933201BF91AF913E
:100400009F918F913F912F910F900FBE0F901F9052
:100410001895EBEBF1E01382128288EE93E0A0E0F6
:10042000B0E084839583A683B78384E091E09183D1
:10043000808387E791E09587848783E391E09787BE
:10044000868785EC90E0918B808B84EC90E0938B99
:10045000828B80EC90E0958B848B81EC90E0978B85
:10046000868B82EC90E0918F808F86EC90E0938F6A
:10047000828F84E0848F83E0858F87E0868F85E09C
:10048000878F81E080A30895789484B5826084BDCD
:1004900084B5816084BD85B5826085BD85B5816088
:1004A00085BD80916E00816080936E001092810006
:1004B00080918100826080938100809181008160C1
:1004C0008093810080918000816080938000809182
:1004D000B10084608093B1008091B000816080930E
:1004E000B00080917A00846080937A0080917A00D5
:1004F000826080937A0080917A00816080937A0094
:1005000080917A00806880937A001092C100E09117
:10051000CF01F091D00181E090E09C010090DB01DF
:1005200002C0220F331F0A94E2F72083E091CB012F
:10053000F091CC011082E091CD01F091CE012FEC31
:1005400020831092DC01E091D101F091D201408131
:100550009C010090D70102C0220F331F0A94E2F7DA
:10056000242B2083E091D101F091D20140819C01A4
:100570000090D80102C0220F331F0A94E2F7242B07
:100580002083E091D101F091D20140819C01009043
:10059000D90102C0220F331F0A94E2F7242B2083D3
:1005A000E091D101F091D20120810090DA0102C0E6
:1005B000880F991F0A94E2F7809582238083C4EF05
:1005C000D1E090E4D92E84EFE82EFF24F39400E0EC
:1005D00010E0D0927C0080917A00806480937A0051
:1005E00080917A0086FDFCCF20917800809179007F
:1005F00030E0382B020F131F0E9425015B010E947F
:1006000025016A197B09683E7340C8F381E0E81A46
:10061000F108F9F6C801BE010E94A603072E000CDE
:10062000880B990B0E94420320E030E04AE753E434
:100630000E947D0387FD1EC049E150E060E171E04A
:100640008BEB91E00E94FD00E091BB01F091BC01B9
:100650000190F081E02D6DE08BEB91E00995E09148
:10066000BB01F091BC010190F081E02D6AE08BEBC1
:1006700091E009950E94F800A6CFF8940C94D40359
:10068000E89409C097FB3EF490958095709561952C
:100690007F4F8F4F9F4F9923A9F0F92F96E9BB27E2
:1006A0009395F695879577956795B795F111F8CF5E
:1006B000FAF4BB0F11F460FF1BC06F5F7F4F8F4FC9
:1006C0009F4F16C0882311F096E911C0772321F0BF
:1006D0009EE8872F762F05C0662371F096E8862F57
:1006E00070E060E02AF09A95660F771F881FDAF7AE
:1006F000880F9695879597F908950E94820308F4CC
:100700008FEF0895990F0008550FAA0BE0E8FEEF50
:1007100016161706E807F907C0F012161306E407C5
:10072000F50798F0621B730B840B950B39F40A26BE
:1007300061F0232B242B252B21F408950A2609F49C
:10074000A140A6958FEF811D811D089597FB072E6F
:1007500016F4009407D077FD09D00E94BA0307FC75
:1007600005D03EF4909581959F4F089570956195C1
:100770007F4F0895AA1BBB1B51E107C0AA1FBB1FD7
:10078000A617B70710F0A61BB70B881F991F5A951D
:10079000A9F780959095BC01CD010895EE0FFF1F3C
:0C07A0000590F491E02D0994F894FFCF2F
:1007AC00000000005F00FD00E800AC00CC00A100E0
:1007BC00536F756E642069732061626F7665207467
:0A07CC0068726573686F6C642000AA
:00000001FF
